{
  "contractName": "CryptoCars",
  "abi": [
    {
      "inputs": [],
      "stateMutability": "payable",
      "type": "constructor",
      "payable": true
    },
    {
      "anonymous": false,
      "inputs": [
        {
          "indexed": true,
          "internalType": "address",
          "name": "owner",
          "type": "address"
        },
        {
          "indexed": true,
          "internalType": "address",
          "name": "approved",
          "type": "address"
        },
        {
          "indexed": true,
          "internalType": "uint256",
          "name": "tokenId",
          "type": "uint256"
        }
      ],
      "name": "Approval",
      "type": "event"
    },
    {
      "anonymous": false,
      "inputs": [
        {
          "indexed": true,
          "internalType": "address",
          "name": "owner",
          "type": "address"
        },
        {
          "indexed": true,
          "internalType": "address",
          "name": "operator",
          "type": "address"
        },
        {
          "indexed": false,
          "internalType": "bool",
          "name": "approved",
          "type": "bool"
        }
      ],
      "name": "ApprovalForAll",
      "type": "event"
    },
    {
      "anonymous": false,
      "inputs": [
        {
          "indexed": true,
          "internalType": "address",
          "name": "from",
          "type": "address"
        },
        {
          "indexed": true,
          "internalType": "address",
          "name": "to",
          "type": "address"
        },
        {
          "indexed": true,
          "internalType": "uint256",
          "name": "tokenId",
          "type": "uint256"
        }
      ],
      "name": "Transfer",
      "type": "event"
    },
    {
      "inputs": [
        {
          "internalType": "uint256",
          "name": "",
          "type": "uint256"
        }
      ],
      "name": "allCryptoCars",
      "outputs": [
        {
          "internalType": "uint256",
          "name": "tokenId",
          "type": "uint256"
        },
        {
          "internalType": "string",
          "name": "tokenName",
          "type": "string"
        },
        {
          "internalType": "string",
          "name": "tokenURI",
          "type": "string"
        },
        {
          "internalType": "address payable",
          "name": "mintedBy",
          "type": "address"
        },
        {
          "internalType": "address payable",
          "name": "currentOwner",
          "type": "address"
        },
        {
          "internalType": "address payable",
          "name": "previousOwner",
          "type": "address"
        },
        {
          "internalType": "uint256",
          "name": "price",
          "type": "uint256"
        },
        {
          "internalType": "uint256",
          "name": "numberOfTransfers",
          "type": "uint256"
        },
        {
          "internalType": "bool",
          "name": "forSale",
          "type": "bool"
        }
      ],
      "stateMutability": "view",
      "type": "function",
      "constant": true
    },
    {
      "inputs": [
        {
          "internalType": "address",
          "name": "to",
          "type": "address"
        },
        {
          "internalType": "uint256",
          "name": "tokenId",
          "type": "uint256"
        }
      ],
      "name": "approve",
      "outputs": [],
      "stateMutability": "nonpayable",
      "type": "function"
    },
    {
      "inputs": [
        {
          "internalType": "address",
          "name": "owner",
          "type": "address"
        }
      ],
      "name": "balanceOf",
      "outputs": [
        {
          "internalType": "uint256",
          "name": "",
          "type": "uint256"
        }
      ],
      "stateMutability": "view",
      "type": "function",
      "constant": true
    },
    {
      "inputs": [],
      "name": "baseURI",
      "outputs": [
        {
          "internalType": "string",
          "name": "",
          "type": "string"
        }
      ],
      "stateMutability": "view",
      "type": "function",
      "constant": true
    },
    {
      "inputs": [],
      "name": "collectionName",
      "outputs": [
        {
          "internalType": "string",
          "name": "",
          "type": "string"
        }
      ],
      "stateMutability": "view",
      "type": "function",
      "constant": true
    },
    {
      "inputs": [],
      "name": "collectionNameSymbol",
      "outputs": [
        {
          "internalType": "string",
          "name": "",
          "type": "string"
        }
      ],
      "stateMutability": "view",
      "type": "function",
      "constant": true
    },
    {
      "inputs": [
        {
          "internalType": "string",
          "name": "",
          "type": "string"
        }
      ],
      "name": "colorExists",
      "outputs": [
        {
          "internalType": "bool",
          "name": "",
          "type": "bool"
        }
      ],
      "stateMutability": "view",
      "type": "function",
      "constant": true
    },
    {
      "inputs": [],
      "name": "cryptoCarCounter",
      "outputs": [
        {
          "internalType": "uint256",
          "name": "",
          "type": "uint256"
        }
      ],
      "stateMutability": "view",
      "type": "function",
      "constant": true
    },
    {
      "inputs": [
        {
          "internalType": "uint256",
          "name": "tokenId",
          "type": "uint256"
        }
      ],
      "name": "getApproved",
      "outputs": [
        {
          "internalType": "address",
          "name": "",
          "type": "address"
        }
      ],
      "stateMutability": "view",
      "type": "function",
      "constant": true
    },
    {
      "inputs": [
        {
          "internalType": "address",
          "name": "owner",
          "type": "address"
        },
        {
          "internalType": "address",
          "name": "operator",
          "type": "address"
        }
      ],
      "name": "isApprovedForAll",
      "outputs": [
        {
          "internalType": "bool",
          "name": "",
          "type": "bool"
        }
      ],
      "stateMutability": "view",
      "type": "function",
      "constant": true
    },
    {
      "inputs": [],
      "name": "name",
      "outputs": [
        {
          "internalType": "string",
          "name": "",
          "type": "string"
        }
      ],
      "stateMutability": "view",
      "type": "function",
      "constant": true
    },
    {
      "inputs": [
        {
          "internalType": "uint256",
          "name": "tokenId",
          "type": "uint256"
        }
      ],
      "name": "ownerOf",
      "outputs": [
        {
          "internalType": "address",
          "name": "",
          "type": "address"
        }
      ],
      "stateMutability": "view",
      "type": "function",
      "constant": true
    },
    {
      "inputs": [
        {
          "internalType": "address",
          "name": "from",
          "type": "address"
        },
        {
          "internalType": "address",
          "name": "to",
          "type": "address"
        },
        {
          "internalType": "uint256",
          "name": "tokenId",
          "type": "uint256"
        }
      ],
      "name": "safeTransferFrom",
      "outputs": [],
      "stateMutability": "nonpayable",
      "type": "function"
    },
    {
      "inputs": [
        {
          "internalType": "address",
          "name": "from",
          "type": "address"
        },
        {
          "internalType": "address",
          "name": "to",
          "type": "address"
        },
        {
          "internalType": "uint256",
          "name": "tokenId",
          "type": "uint256"
        },
        {
          "internalType": "bytes",
          "name": "_data",
          "type": "bytes"
        }
      ],
      "name": "safeTransferFrom",
      "outputs": [],
      "stateMutability": "nonpayable",
      "type": "function"
    },
    {
      "inputs": [
        {
          "internalType": "address",
          "name": "operator",
          "type": "address"
        },
        {
          "internalType": "bool",
          "name": "approved",
          "type": "bool"
        }
      ],
      "name": "setApprovalForAll",
      "outputs": [],
      "stateMutability": "nonpayable",
      "type": "function"
    },
    {
      "inputs": [
        {
          "internalType": "bytes4",
          "name": "interfaceId",
          "type": "bytes4"
        }
      ],
      "name": "supportsInterface",
      "outputs": [
        {
          "internalType": "bool",
          "name": "",
          "type": "bool"
        }
      ],
      "stateMutability": "view",
      "type": "function",
      "constant": true
    },
    {
      "inputs": [],
      "name": "symbol",
      "outputs": [
        {
          "internalType": "string",
          "name": "",
          "type": "string"
        }
      ],
      "stateMutability": "view",
      "type": "function",
      "constant": true
    },
    {
      "inputs": [
        {
          "internalType": "uint256",
          "name": "index",
          "type": "uint256"
        }
      ],
      "name": "tokenByIndex",
      "outputs": [
        {
          "internalType": "uint256",
          "name": "",
          "type": "uint256"
        }
      ],
      "stateMutability": "view",
      "type": "function",
      "constant": true
    },
    {
      "inputs": [
        {
          "internalType": "string",
          "name": "",
          "type": "string"
        }
      ],
      "name": "tokenNameExists",
      "outputs": [
        {
          "internalType": "bool",
          "name": "",
          "type": "bool"
        }
      ],
      "stateMutability": "view",
      "type": "function",
      "constant": true
    },
    {
      "inputs": [
        {
          "internalType": "address",
          "name": "owner",
          "type": "address"
        },
        {
          "internalType": "uint256",
          "name": "index",
          "type": "uint256"
        }
      ],
      "name": "tokenOfOwnerByIndex",
      "outputs": [
        {
          "internalType": "uint256",
          "name": "",
          "type": "uint256"
        }
      ],
      "stateMutability": "view",
      "type": "function",
      "constant": true
    },
    {
      "inputs": [
        {
          "internalType": "uint256",
          "name": "tokenId",
          "type": "uint256"
        }
      ],
      "name": "tokenURI",
      "outputs": [
        {
          "internalType": "string",
          "name": "",
          "type": "string"
        }
      ],
      "stateMutability": "view",
      "type": "function",
      "constant": true
    },
    {
      "inputs": [
        {
          "internalType": "string",
          "name": "",
          "type": "string"
        }
      ],
      "name": "tokenURIExists",
      "outputs": [
        {
          "internalType": "bool",
          "name": "",
          "type": "bool"
        }
      ],
      "stateMutability": "view",
      "type": "function",
      "constant": true
    },
    {
      "inputs": [],
      "name": "totalSupply",
      "outputs": [
        {
          "internalType": "uint256",
          "name": "",
          "type": "uint256"
        }
      ],
      "stateMutability": "view",
      "type": "function",
      "constant": true
    },
    {
      "inputs": [
        {
          "internalType": "address",
          "name": "from",
          "type": "address"
        },
        {
          "internalType": "address",
          "name": "to",
          "type": "address"
        },
        {
          "internalType": "uint256",
          "name": "tokenId",
          "type": "uint256"
        }
      ],
      "name": "transferFrom",
      "outputs": [],
      "stateMutability": "nonpayable",
      "type": "function"
    },
    {
      "inputs": [
        {
          "internalType": "string",
          "name": "_name",
          "type": "string"
        },
        {
          "internalType": "string",
          "name": "_tokenURI",
          "type": "string"
        },
        {
          "internalType": "uint256",
          "name": "_price",
          "type": "uint256"
        },
        {
          "internalType": "string[]",
          "name": "_colors",
          "type": "string[]"
        }
      ],
      "name": "mintCryptoCar",
      "outputs": [],
      "stateMutability": "nonpayable",
      "type": "function"
    },
    {
      "inputs": [
        {
          "internalType": "uint256",
          "name": "_tokenId",
          "type": "uint256"
        }
      ],
      "name": "getTokenOwner",
      "outputs": [
        {
          "internalType": "address",
          "name": "",
          "type": "address"
        }
      ],
      "stateMutability": "view",
      "type": "function",
      "constant": true
    },
    {
      "inputs": [
        {
          "internalType": "uint256",
          "name": "_tokenId",
          "type": "uint256"
        }
      ],
      "name": "getTokenMetaData",
      "outputs": [
        {
          "internalType": "string",
          "name": "",
          "type": "string"
        }
      ],
      "stateMutability": "view",
      "type": "function",
      "constant": true
    },
    {
      "inputs": [],
      "name": "getNumberOfTokensMinted",
      "outputs": [
        {
          "internalType": "uint256",
          "name": "",
          "type": "uint256"
        }
      ],
      "stateMutability": "view",
      "type": "function",
      "constant": true
    },
    {
      "inputs": [
        {
          "internalType": "address",
          "name": "_owner",
          "type": "address"
        }
      ],
      "name": "getTotalNumberOfTokensOwnedByAnAddress",
      "outputs": [
        {
          "internalType": "uint256",
          "name": "",
          "type": "uint256"
        }
      ],
      "stateMutability": "view",
      "type": "function",
      "constant": true
    },
    {
      "inputs": [
        {
          "internalType": "uint256",
          "name": "_tokenId",
          "type": "uint256"
        }
      ],
      "name": "getTokenExists",
      "outputs": [
        {
          "internalType": "bool",
          "name": "",
          "type": "bool"
        }
      ],
      "stateMutability": "view",
      "type": "function",
      "constant": true
    },
    {
      "inputs": [
        {
          "internalType": "uint256",
          "name": "_tokenId",
          "type": "uint256"
        }
      ],
      "name": "buyToken",
      "outputs": [],
      "stateMutability": "payable",
      "type": "function",
      "payable": true
    },
    {
      "inputs": [
        {
          "internalType": "uint256",
          "name": "_tokenId",
          "type": "uint256"
        },
        {
          "internalType": "uint256",
          "name": "_newPrice",
          "type": "uint256"
        }
      ],
      "name": "changeTokenPrice",
      "outputs": [],
      "stateMutability": "nonpayable",
      "type": "function"
    },
    {
      "inputs": [
        {
          "internalType": "uint256",
          "name": "_tokenId",
          "type": "uint256"
        }
      ],
      "name": "toggleForSale",
      "outputs": [],
      "stateMutability": "nonpayable",
      "type": "function"
    }
  ],
  "bytecode": "0x60806040526040518060400160405280601681526020017f43727970746f204361727320436f6c6c656374696f6e000000000000000000008152506040518060400160405280600281526020017f434b000000000000000000000000000000000000000000000000000000000000815250620000886301ffc9a760e01b6200015a60201b60201c565b8160069080519060200190620000a0929190620003af565b508060079080519060200190620000b9929190620003af565b50620000d26380ac58cd60e01b6200015a60201b60201c565b620000ea635b5e139f60e01b6200015a60201b60201c565b6200010263780e9d6360e01b6200015a60201b60201c565b5050620001146200026360201b60201c565b600a90805190602001906200012b929190620003af565b506200013c6200030960201b60201c565b600b908051906020019062000153929190620003af565b5062000465565b63ffffffff60e01b817bffffffffffffffffffffffffffffffffffffffffffffffffffffffff19161415620001f7576040517f08c379a000000000000000000000000000000000000000000000000000000000815260040180806020018281038252601c8152602001807f4552433136353a20696e76616c696420696e746572666163652069640000000081525060200191505060405180910390fd5b6001600080837bffffffffffffffffffffffffffffffffffffffffffffffffffffffff19167bffffffffffffffffffffffffffffffffffffffffffffffffffffffff1916815260200190815260200160002060006101000a81548160ff02191690831515021790555050565b606060068054600181600116156101000203166002900480601f016020809104026020016040519081016040528092919081815260200182805460018160011615610100020316600290048015620002ff5780601f10620002d357610100808354040283529160200191620002ff565b820191906000526020600020905b815481529060010190602001808311620002e157829003601f168201915b5050505050905090565b606060078054600181600116156101000203166002900480601f016020809104026020016040519081016040528092919081815260200182805460018160011615610100020316600290048015620003a55780601f106200037957610100808354040283529160200191620003a5565b820191906000526020600020905b8154815290600101906020018083116200038757829003601f168201915b5050505050905090565b828054600181600116156101000203166002900490600052602060002090601f016020900481019282620003e7576000855562000433565b82601f106200040257805160ff191683800117855562000433565b8280016001018555821562000433579182015b828111156200043257825182559160200191906001019062000415565b5b50905062000442919062000446565b5090565b5b808211156200046157600081600090555060010162000447565b5090565b614e5480620004756000396000f3fe6080604052600436106101ee5760003560e01c80636c0360eb1161010d578063a22cb465116100a0578063b88d4fde1161006f578063b88d4fde1461078e578063c87b56dd146107b7578063cc151f3a146107f4578063e5326ab11461081f578063e985e9c51461084a576101ee565b8063a22cb465146106c2578063a32018b9146106eb578063a46b1fac14610714578063a5cd761f14610751576101ee565b806395d89b41116100dc57806395d89b41146105fe578063961798b5146106295780639dc046d61461066e578063a0f502da14610699576101ee565b80636c0360eb1461052e5780636f9507f91461055957806370a08231146105845780638d44807c146105c1576101ee565b80632f745c59116101855780634f6ccce7116101545780634f6ccce71461044e57806362e8e8ac1461048b5780636352211e146104b457806367c623cf146104f1576101ee565b80632f745c591461036e57806342842e0e146103ab57806343902850146103d457806343d32ae714610411576101ee565b8063142687f3116101c1578063142687f3146102c157806318160ddd146102fe57806323b872dd146103295780632d296bf114610352576101ee565b806301ffc9a7146101f357806306fdde0314610230578063081812fc1461025b578063095ea7b314610298575b600080fd5b3480156101ff57600080fd5b5061021a600480360381019061021591906143d1565b610887565b60405161022791906147cc565b60405180910390f35b34801561023c57600080fd5b506102456108ee565b60405161025291906147e7565b60405180910390f35b34801561026757600080fd5b50610282600480360381019061027d91906144eb565b610990565b60405161028f91906147b1565b60405180910390f35b3480156102a457600080fd5b506102bf60048036038101906102ba9190614395565b610a2b565b005b3480156102cd57600080fd5b506102e860048036038101906102e391906144eb565b610b6f565b6040516102f591906147cc565b60405180910390f35b34801561030a57600080fd5b50610313610b86565b60405161032091906148a9565b60405180910390f35b34801561033557600080fd5b50610350600480360381019061034b919061428f565b610b97565b005b61036c600480360381019061036791906144eb565b610c0d565b005b34801561037a57600080fd5b5061039560048036038101906103909190614395565b6111e6565b6040516103a291906148a9565b60405180910390f35b3480156103b757600080fd5b506103d260048036038101906103cd919061428f565b611241565b005b3480156103e057600080fd5b506103fb60048036038101906103f6919061422a565b611261565b60405161040891906148a9565b60405180910390f35b34801561041d57600080fd5b50610438600480360381019061043391906143fa565b611278565b60405161044591906147cc565b60405180910390f35b34801561045a57600080fd5b50610475600480360381019061047091906144eb565b6112ae565b60405161048291906148a9565b60405180910390f35b34801561049757600080fd5b506104b260048036038101906104ad9190614514565b6112d1565b005b3480156104c057600080fd5b506104db60048036038101906104d691906144eb565b611779565b6040516104e891906147b1565b60405180910390f35b3480156104fd57600080fd5b50610518600480360381019061051391906144eb565b6117b0565b60405161052591906147e7565b60405180910390f35b34801561053a57600080fd5b506105436117c8565b60405161055091906147e7565b60405180910390f35b34801561056557600080fd5b5061056e61186a565b60405161057b91906147e7565b60405180910390f35b34801561059057600080fd5b506105ab60048036038101906105a6919061422a565b611908565b6040516105b891906148a9565b60405180910390f35b3480156105cd57600080fd5b506105e860048036038101906105e391906143fa565b6119dd565b6040516105f591906147cc565b60405180910390f35b34801561060a57600080fd5b50610613611a13565b60405161062091906147e7565b60405180910390f35b34801561063557600080fd5b50610650600480360381019061064b91906144eb565b611ab5565b604051610665999897969594939291906148c4565b60405180910390f35b34801561067a57600080fd5b50610683611ca0565b60405161069091906148a9565b60405180910390f35b3480156106a557600080fd5b506106c060048036038101906106bb919061443b565b611ca6565b005b3480156106ce57600080fd5b506106e960048036038101906106e49190614359565b6121e4565b005b3480156106f757600080fd5b50610712600480360381019061070d91906144eb565b61239a565b005b34801561072057600080fd5b5061073b600480360381019061073691906143fa565b61286c565b60405161074891906147cc565b60405180910390f35b34801561075d57600080fd5b50610778600480360381019061077391906144eb565b6128a2565b60405161078591906147b1565b60405180910390f35b34801561079a57600080fd5b506107b560048036038101906107b091906142de565b6128b9565b005b3480156107c357600080fd5b506107de60048036038101906107d991906144eb565b612931565b6040516107eb91906147e7565b60405180910390f35b34801561080057600080fd5b50610809612c02565b60405161081691906148a9565b60405180910390f35b34801561082b57600080fd5b50610834612c16565b60405161084191906147e7565b60405180910390f35b34801561085657600080fd5b50610871600480360381019061086c9190614253565b612cb4565b60405161087e91906147cc565b60405180910390f35b6000806000837bffffffffffffffffffffffffffffffffffffffffffffffffffffffff19167bffffffffffffffffffffffffffffffffffffffffffffffffffffffff1916815260200190815260200160002060009054906101000a900460ff169050919050565b606060068054600181600116156101000203166002900480601f0160208091040260200160405190810160405280929190818152602001828054600181600116156101000203166002900480156109865780601f1061095b57610100808354040283529160200191610986565b820191906000526020600020905b81548152906001019060200180831161096957829003601f168201915b5050505050905090565b600061099b82612d48565b6109f0576040517f08c379a000000000000000000000000000000000000000000000000000000000815260040180806020018281038252602c815260200180614d1d602c913960400191505060405180910390fd5b6004600083815260200190815260200160002060009054906101000a900473ffffffffffffffffffffffffffffffffffffffff169050919050565b6000610a3682611779565b90508073ffffffffffffffffffffffffffffffffffffffff168373ffffffffffffffffffffffffffffffffffffffff161415610abd576040517f08c379a0000000000000000000000000000000000000000000000000000000008152600401808060200182810382526021815260200180614dcd6021913960400191505060405180910390fd5b8073ffffffffffffffffffffffffffffffffffffffff16610adc612d65565b73ffffffffffffffffffffffffffffffffffffffff161480610b0b5750610b0a81610b05612d65565b612cb4565b5b610b60576040517f08c379a0000000000000000000000000000000000000000000000000000000008152600401808060200182810382526038815260200180614c706038913960400191505060405180910390fd5b610b6a8383612d6d565b505050565b600080610b7b83612d48565b905080915050919050565b6000610b926002612e26565b905090565b610ba8610ba2612d65565b82612e3b565b610bfd576040517f08c379a0000000000000000000000000000000000000000000000000000000008152600401808060200182810382526031815260200180614dee6031913960400191505060405180910390fd5b610c08838383612f2f565b505050565b600073ffffffffffffffffffffffffffffffffffffffff163373ffffffffffffffffffffffffffffffffffffffff161415610c4757600080fd5b610c5081612d48565b610c5957600080fd5b6000610c6482611779565b9050600073ffffffffffffffffffffffffffffffffffffffff168173ffffffffffffffffffffffffffffffffffffffff161415610ca057600080fd5b3373ffffffffffffffffffffffffffffffffffffffff168173ffffffffffffffffffffffffffffffffffffffff161415610cd957600080fd5b6000600d60008481526020019081526020016000206040518061012001604052908160008201548152602001600182018054600181600116156101000203166002900480601f016020809104026020016040519081016040528092919081815260200182805460018160011615610100020316600290048015610d9d5780601f10610d7257610100808354040283529160200191610d9d565b820191906000526020600020905b815481529060010190602001808311610d8057829003601f168201915b50505050508152602001600282018054600181600116156101000203166002900480601f016020809104026020016040519081016040528092919081815260200182805460018160011615610100020316600290048015610e3f5780601f10610e1457610100808354040283529160200191610e3f565b820191906000526020600020905b815481529060010190602001808311610e2257829003601f168201915b505050505081526020016003820160009054906101000a900473ffffffffffffffffffffffffffffffffffffffff1673ffffffffffffffffffffffffffffffffffffffff1673ffffffffffffffffffffffffffffffffffffffff1681526020016004820160009054906101000a900473ffffffffffffffffffffffffffffffffffffffff1673ffffffffffffffffffffffffffffffffffffffff1673ffffffffffffffffffffffffffffffffffffffff1681526020016005820160009054906101000a900473ffffffffffffffffffffffffffffffffffffffff1673ffffffffffffffffffffffffffffffffffffffff1673ffffffffffffffffffffffffffffffffffffffff16815260200160068201548152602001600782015481526020016008820160009054906101000a900460ff16151515158152505090508060c00151341015610f8c57600080fd5b806101000151610f9b57600080fd5b610fa6823385612f2f565b6000816080015190508073ffffffffffffffffffffffffffffffffffffffff166108fc349081150290604051600060405180830381858888f19350505050158015610ff5573d6000803e3d6000fd5b5081608001518260a0019073ffffffffffffffffffffffffffffffffffffffff16908173ffffffffffffffffffffffffffffffffffffffff168152505033826080019073ffffffffffffffffffffffffffffffffffffffff16908173ffffffffffffffffffffffffffffffffffffffff168152505060018260e001818151019150818152505081600d60008681526020019081526020016000206000820151816000015560208201518160010190805190602001906110b5929190614011565b5060408201518160020190805190602001906110d2929190614011565b5060608201518160030160006101000a81548173ffffffffffffffffffffffffffffffffffffffff021916908373ffffffffffffffffffffffffffffffffffffffff16021790555060808201518160040160006101000a81548173ffffffffffffffffffffffffffffffffffffffff021916908373ffffffffffffffffffffffffffffffffffffffff16021790555060a08201518160050160006101000a81548173ffffffffffffffffffffffffffffffffffffffff021916908373ffffffffffffffffffffffffffffffffffffffff16021790555060c0820151816006015560e082015181600701556101008201518160080160006101000a81548160ff02191690831515021790555090505050505050565b600061123982600160008673ffffffffffffffffffffffffffffffffffffffff1673ffffffffffffffffffffffffffffffffffffffff16815260200190815260200160002061317290919063ffffffff16565b905092915050565b61125c838383604051806020016040528060008152506128b9565b505050565b60008061126d83611908565b905080915050919050565b6010818051602081018201805184825260208301602085012081835280955050505050506000915054906101000a900460ff1681565b6000806112c583600261318c90919063ffffffff16565b50905080915050919050565b600073ffffffffffffffffffffffffffffffffffffffff163373ffffffffffffffffffffffffffffffffffffffff16141561130b57600080fd5b61131482612d48565b61131d57600080fd5b600061132883611779565b90503373ffffffffffffffffffffffffffffffffffffffff168173ffffffffffffffffffffffffffffffffffffffff161461136257600080fd5b6000600d60008581526020019081526020016000206040518061012001604052908160008201548152602001600182018054600181600116156101000203166002900480601f0160208091040260200160405190810160405280929190818152602001828054600181600116156101000203166002900480156114265780601f106113fb57610100808354040283529160200191611426565b820191906000526020600020905b81548152906001019060200180831161140957829003601f168201915b50505050508152602001600282018054600181600116156101000203166002900480601f0160208091040260200160405190810160405280929190818152602001828054600181600116156101000203166002900480156114c85780601f1061149d576101008083540402835291602001916114c8565b820191906000526020600020905b8154815290600101906020018083116114ab57829003601f168201915b505050505081526020016003820160009054906101000a900473ffffffffffffffffffffffffffffffffffffffff1673ffffffffffffffffffffffffffffffffffffffff1673ffffffffffffffffffffffffffffffffffffffff1681526020016004820160009054906101000a900473ffffffffffffffffffffffffffffffffffffffff1673ffffffffffffffffffffffffffffffffffffffff1673ffffffffffffffffffffffffffffffffffffffff1681526020016005820160009054906101000a900473ffffffffffffffffffffffffffffffffffffffff1673ffffffffffffffffffffffffffffffffffffffff1673ffffffffffffffffffffffffffffffffffffffff16815260200160068201548152602001600782015481526020016008820160009054906101000a900460ff1615151515815250509050828160c001818152505080600d6000868152602001908152602001600020600082015181600001556020820151816001019080519060200190611648929190614011565b506040820151816002019080519060200190611665929190614011565b5060608201518160030160006101000a81548173ffffffffffffffffffffffffffffffffffffffff021916908373ffffffffffffffffffffffffffffffffffffffff16021790555060808201518160040160006101000a81548173ffffffffffffffffffffffffffffffffffffffff021916908373ffffffffffffffffffffffffffffffffffffffff16021790555060a08201518160050160006101000a81548173ffffffffffffffffffffffffffffffffffffffff021916908373ffffffffffffffffffffffffffffffffffffffff16021790555060c0820151816006015560e082015181600701556101008201518160080160006101000a81548160ff02191690831515021790555090505050505050565b60006117a982604051806060016040528060298152602001614cd26029913960026131b89092919063ffffffff16565b9050919050565b606060006117bd83612931565b905080915050919050565b606060098054600181600116156101000203166002900480601f0160208091040260200160405190810160405280929190818152602001828054600181600116156101000203166002900480156118605780601f1061183557610100808354040283529160200191611860565b820191906000526020600020905b81548152906001019060200180831161184357829003601f168201915b5050505050905090565b600b8054600181600116156101000203166002900480601f0160208091040260200160405190810160405280929190818152602001828054600181600116156101000203166002900480156119005780601f106118d557610100808354040283529160200191611900565b820191906000526020600020905b8154815290600101906020018083116118e357829003601f168201915b505050505081565b60008073ffffffffffffffffffffffffffffffffffffffff168273ffffffffffffffffffffffffffffffffffffffff16141561198f576040517f08c379a000000000000000000000000000000000000000000000000000000000815260040180806020018281038252602a815260200180614ca8602a913960400191505060405180910390fd5b6119d6600160008473ffffffffffffffffffffffffffffffffffffffff1673ffffffffffffffffffffffffffffffffffffffff1681526020019081526020016000206131d7565b9050919050565b600f818051602081018201805184825260208301602085012081835280955050505050506000915054906101000a900460ff1681565b606060078054600181600116156101000203166002900480601f016020809104026020016040519081016040528092919081815260200182805460018160011615610100020316600290048015611aab5780601f10611a8057610100808354040283529160200191611aab565b820191906000526020600020905b815481529060010190602001808311611a8e57829003601f168201915b5050505050905090565b600d602052806000526040600020600091509050806000015490806001018054600181600116156101000203166002900480601f016020809104026020016040519081016040528092919081815260200182805460018160011615610100020316600290048015611b675780601f10611b3c57610100808354040283529160200191611b67565b820191906000526020600020905b815481529060010190602001808311611b4a57829003601f168201915b505050505090806002018054600181600116156101000203166002900480601f016020809104026020016040519081016040528092919081815260200182805460018160011615610100020316600290048015611c055780601f10611bda57610100808354040283529160200191611c05565b820191906000526020600020905b815481529060010190602001808311611be857829003601f168201915b5050505050908060030160009054906101000a900473ffffffffffffffffffffffffffffffffffffffff16908060040160009054906101000a900473ffffffffffffffffffffffffffffffffffffffff16908060050160009054906101000a900473ffffffffffffffffffffffffffffffffffffffff16908060060154908060070154908060080160009054906101000a900460ff16905089565b600c5481565b600073ffffffffffffffffffffffffffffffffffffffff163373ffffffffffffffffffffffffffffffffffffffff161415611d16576040517f08c379a0000000000000000000000000000000000000000000000000000000008152600401611d0d90614849565b60405180910390fd5b600c60008154809291906001019190505550611d33600c54612d48565b15611d73576040517f08c379a0000000000000000000000000000000000000000000000000000000008152600401611d6a90614889565b60405180910390fd5b60005b82829050811015611e1857600f838383818110611d8f57fe5b9050602002810190611da1919061495f565b604051611daf929190614781565b908152602001604051809103902060009054906101000a900460ff1615611e0b576040517f08c379a0000000000000000000000000000000000000000000000000000000008152600401611e0290614869565b60405180910390fd5b8080600101915050611d76565b50601084604051611e29919061479a565b908152602001604051809103902060009054906101000a900460ff1615611e85576040517f08c379a0000000000000000000000000000000000000000000000000000000008152600401611e7c90614809565b60405180910390fd5b600e85604051611e95919061479a565b908152602001604051809103902060009054906101000a900460ff1615611ef1576040517f08c379a0000000000000000000000000000000000000000000000000000000008152600401611ee890614829565b60405180910390fd5b611efd33600c546131ec565b611f09600c54856133e0565b60005b82829050811015611f79576001600f848484818110611f2757fe5b9050602002810190611f39919061495f565b604051611f47929190614781565b908152602001604051809103902060006101000a81548160ff0219169083151502179055508080600101915050611f0c565b506001601085604051611f8c919061479a565b908152602001604051809103902060006101000a81548160ff0219169083151502179055506001600e86604051611fc3919061479a565b908152602001604051809103902060006101000a81548160ff0219169083151502179055506000604051806101200160405280600c5481526020018781526020018681526020013373ffffffffffffffffffffffffffffffffffffffff1681526020013373ffffffffffffffffffffffffffffffffffffffff168152602001600073ffffffffffffffffffffffffffffffffffffffff1681526020018581526020016000815260200160011515815250905080600d6000600c5481526020019081526020016000206000820151816000015560208201518160010190805190602001906120b1929190614011565b5060408201518160020190805190602001906120ce929190614011565b5060608201518160030160006101000a81548173ffffffffffffffffffffffffffffffffffffffff021916908373ffffffffffffffffffffffffffffffffffffffff16021790555060808201518160040160006101000a81548173ffffffffffffffffffffffffffffffffffffffff021916908373ffffffffffffffffffffffffffffffffffffffff16021790555060a08201518160050160006101000a81548173ffffffffffffffffffffffffffffffffffffffff021916908373ffffffffffffffffffffffffffffffffffffffff16021790555060c0820151816006015560e082015181600701556101008201518160080160006101000a81548160ff021916908315150217905550905050505050505050565b6121ec612d65565b73ffffffffffffffffffffffffffffffffffffffff168273ffffffffffffffffffffffffffffffffffffffff16141561228d576040517f08c379a00000000000000000000000000000000000000000000000000000000081526004018080602001828103825260198152602001807f4552433732313a20617070726f766520746f2063616c6c65720000000000000081525060200191505060405180910390fd5b806005600061229a612d65565b73ffffffffffffffffffffffffffffffffffffffff1673ffffffffffffffffffffffffffffffffffffffff16815260200190815260200160002060008473ffffffffffffffffffffffffffffffffffffffff1673ffffffffffffffffffffffffffffffffffffffff16815260200190815260200160002060006101000a81548160ff0219169083151502179055508173ffffffffffffffffffffffffffffffffffffffff16612347612d65565b73ffffffffffffffffffffffffffffffffffffffff167f17307eab39ab6107e8899845ad3d59bd9653f200f220920489ca2b5937696c318360405180821515815260200191505060405180910390a35050565b600073ffffffffffffffffffffffffffffffffffffffff163373ffffffffffffffffffffffffffffffffffffffff1614156123d457600080fd5b6123dd81612d48565b6123e657600080fd5b60006123f182611779565b90503373ffffffffffffffffffffffffffffffffffffffff168173ffffffffffffffffffffffffffffffffffffffff161461242b57600080fd5b6000600d60008481526020019081526020016000206040518061012001604052908160008201548152602001600182018054600181600116156101000203166002900480601f0160208091040260200160405190810160405280929190818152602001828054600181600116156101000203166002900480156124ef5780601f106124c4576101008083540402835291602001916124ef565b820191906000526020600020905b8154815290600101906020018083116124d257829003601f168201915b50505050508152602001600282018054600181600116156101000203166002900480601f0160208091040260200160405190810160405280929190818152602001828054600181600116156101000203166002900480156125915780601f1061256657610100808354040283529160200191612591565b820191906000526020600020905b81548152906001019060200180831161257457829003601f168201915b505050505081526020016003820160009054906101000a900473ffffffffffffffffffffffffffffffffffffffff1673ffffffffffffffffffffffffffffffffffffffff1673ffffffffffffffffffffffffffffffffffffffff1681526020016004820160009054906101000a900473ffffffffffffffffffffffffffffffffffffffff1673ffffffffffffffffffffffffffffffffffffffff1673ffffffffffffffffffffffffffffffffffffffff1681526020016005820160009054906101000a900473ffffffffffffffffffffffffffffffffffffffff1673ffffffffffffffffffffffffffffffffffffffff1673ffffffffffffffffffffffffffffffffffffffff16815260200160068201548152602001600782015481526020016008820160009054906101000a900460ff1615151515815250509050806101000151156126ef57600081610100019015159081151581525050612702565b6001816101000190151590811515815250505b80600d600085815260200190815260200160002060008201518160000155602082015181600101908051906020019061273c929190614011565b506040820151816002019080519060200190612759929190614011565b5060608201518160030160006101000a81548173ffffffffffffffffffffffffffffffffffffffff021916908373ffffffffffffffffffffffffffffffffffffffff16021790555060808201518160040160006101000a81548173ffffffffffffffffffffffffffffffffffffffff021916908373ffffffffffffffffffffffffffffffffffffffff16021790555060a08201518160050160006101000a81548173ffffffffffffffffffffffffffffffffffffffff021916908373ffffffffffffffffffffffffffffffffffffffff16021790555060c0820151816006015560e082015181600701556101008201518160080160006101000a81548160ff021916908315150217905550905050505050565b600e818051602081018201805184825260208301602085012081835280955050505050506000915054906101000a900460ff1681565b6000806128ae83611779565b905080915050919050565b6128ca6128c4612d65565b83612e3b565b61291f576040517f08c379a0000000000000000000000000000000000000000000000000000000008152600401808060200182810382526031815260200180614dee6031913960400191505060405180910390fd5b61292b8484848461346a565b50505050565b606061293c82612d48565b612991576040517f08c379a000000000000000000000000000000000000000000000000000000000815260040180806020018281038252602f815260200180614d9e602f913960400191505060405180910390fd5b6000600860008481526020019081526020016000208054600181600116156101000203166002900480601f016020809104026020016040519081016040528092919081815260200182805460018160011615610100020316600290048015612a3a5780601f10612a0f57610100808354040283529160200191612a3a565b820191906000526020600020905b815481529060010190602001808311612a1d57829003601f168201915b505050505090506000612a4b6117c8565b9050600081511415612a61578192505050612bfd565b600082511115612b325780826040516020018083805190602001908083835b60208310612aa35780518252602082019150602081019050602083039250612a80565b6001836020036101000a03801982511681845116808217855250505050505090500182805190602001908083835b60208310612af45780518252602082019150602081019050602083039250612ad1565b6001836020036101000a0380198251168184511680821785525050505050509050019250505060405160208183030381529060405292505050612bfd565b80612b3c856134dc565b6040516020018083805190602001908083835b60208310612b725780518252602082019150602081019050602083039250612b4f565b6001836020036101000a03801982511681845116808217855250505050505090500182805190602001908083835b60208310612bc35780518252602082019150602081019050602083039250612ba0565b6001836020036101000a03801982511681845116808217855250505050505090500192505050604051602081830303815290604052925050505b919050565b600080612c0d610b86565b90508091505090565b600a8054600181600116156101000203166002900480601f016020809104026020016040519081016040528092919081815260200182805460018160011615610100020316600290048015612cac5780601f10612c8157610100808354040283529160200191612cac565b820191906000526020600020905b815481529060010190602001808311612c8f57829003601f168201915b505050505081565b6000600560008473ffffffffffffffffffffffffffffffffffffffff1673ffffffffffffffffffffffffffffffffffffffff16815260200190815260200160002060008373ffffffffffffffffffffffffffffffffffffffff1673ffffffffffffffffffffffffffffffffffffffff16815260200190815260200160002060009054906101000a900460ff16905092915050565b6000612d5e82600261362390919063ffffffff16565b9050919050565b600033905090565b816004600083815260200190815260200160002060006101000a81548173ffffffffffffffffffffffffffffffffffffffff021916908373ffffffffffffffffffffffffffffffffffffffff160217905550808273ffffffffffffffffffffffffffffffffffffffff16612de083611779565b73ffffffffffffffffffffffffffffffffffffffff167f8c5be1e5ebec7d5bd14f71427d1e84f3dd0314c0f7b2291e5b200ac8c7c3b92560405160405180910390a45050565b6000612e348260000161363d565b9050919050565b6000612e4682612d48565b612e9b576040517f08c379a000000000000000000000000000000000000000000000000000000000815260040180806020018281038252602c815260200180614c44602c913960400191505060405180910390fd5b6000612ea683611779565b90508073ffffffffffffffffffffffffffffffffffffffff168473ffffffffffffffffffffffffffffffffffffffff161480612f1557508373ffffffffffffffffffffffffffffffffffffffff16612efd84610990565b73ffffffffffffffffffffffffffffffffffffffff16145b80612f265750612f258185612cb4565b5b91505092915050565b8273ffffffffffffffffffffffffffffffffffffffff16612f4f82611779565b73ffffffffffffffffffffffffffffffffffffffff1614612fbb576040517f08c379a0000000000000000000000000000000000000000000000000000000008152600401808060200182810382526029815260200180614d756029913960400191505060405180910390fd5b600073ffffffffffffffffffffffffffffffffffffffff168273ffffffffffffffffffffffffffffffffffffffff161415613041576040517f08c379a0000000000000000000000000000000000000000000000000000000008152600401808060200182810382526024815260200180614bfa6024913960400191505060405180910390fd5b61304c83838361364e565b613057600082612d6d565b6130a881600160008673ffffffffffffffffffffffffffffffffffffffff1673ffffffffffffffffffffffffffffffffffffffff16815260200190815260200160002061365390919063ffffffff16565b506130fa81600160008573ffffffffffffffffffffffffffffffffffffffff1673ffffffffffffffffffffffffffffffffffffffff16815260200190815260200160002061366d90919063ffffffff16565b50613111818360026136879092919063ffffffff16565b50808273ffffffffffffffffffffffffffffffffffffffff168473ffffffffffffffffffffffffffffffffffffffff167fddf252ad1be2c89b69c2b068fc378daa952ba7f163c4a11628f55a4df523b3ef60405160405180910390a4505050565b600061318183600001836136bc565b60001c905092915050565b60008060008061319f866000018661373f565b915091508160001c8160001c9350935050509250929050565b60006131cb846000018460001b846137d8565b60001c90509392505050565b60006131e5826000016138ce565b9050919050565b600073ffffffffffffffffffffffffffffffffffffffff168273ffffffffffffffffffffffffffffffffffffffff16141561328f576040517f08c379a00000000000000000000000000000000000000000000000000000000081526004018080602001828103825260208152602001807f4552433732313a206d696e7420746f20746865207a65726f206164647265737381525060200191505060405180910390fd5b61329881612d48565b1561330b576040517f08c379a000000000000000000000000000000000000000000000000000000000815260040180806020018281038252601c8152602001807f4552433732313a20746f6b656e20616c7265616479206d696e7465640000000081525060200191505060405180910390fd5b6133176000838361364e565b61336881600160008573ffffffffffffffffffffffffffffffffffffffff1673ffffffffffffffffffffffffffffffffffffffff16815260200190815260200160002061366d90919063ffffffff16565b5061337f818360026136879092919063ffffffff16565b50808273ffffffffffffffffffffffffffffffffffffffff16600073ffffffffffffffffffffffffffffffffffffffff167fddf252ad1be2c89b69c2b068fc378daa952ba7f163c4a11628f55a4df523b3ef60405160405180910390a45050565b6133e982612d48565b61343e576040517f08c379a000000000000000000000000000000000000000000000000000000000815260040180806020018281038252602c815260200180614d49602c913960400191505060405180910390fd5b80600860008481526020019081526020016000209080519060200190613465929190614011565b505050565b613475848484612f2f565b613481848484846138df565b6134d6576040517f08c379a0000000000000000000000000000000000000000000000000000000008152600401808060200182810382526032815260200180614bc86032913960400191505060405180910390fd5b50505050565b60606000821415613524576040518060400160405280600181526020017f3000000000000000000000000000000000000000000000000000000000000000815250905061361e565b600082905060005b6000821461354e578080600101915050600a828161354657fe5b04915061352c565b60008167ffffffffffffffff8111801561356757600080fd5b506040519080825280601f01601f19166020018201604052801561359a5781602001600182028036833780820191505090505b50905060006001830390508593505b6000841461361657600a84816135bb57fe5b0660300160f81b828280600190039350815181106135d557fe5b60200101907effffffffffffffffffffffffffffffffffffffffffffffffffffffffffffff1916908160001a905350600a848161360e57fe5b0493506135a9565b819450505050505b919050565b6000613635836000018360001b613af8565b905092915050565b600081600001805490509050919050565b505050565b6000613665836000018360001b613b1b565b905092915050565b600061367f836000018360001b613c03565b905092915050565b60006136b3846000018460001b8473ffffffffffffffffffffffffffffffffffffffff1660001b613c73565b90509392505050565b60008183600001805490501161371d576040517f08c379a0000000000000000000000000000000000000000000000000000000008152600401808060200182810382526022815260200180614ba66022913960400191505060405180910390fd5b82600001828154811061372c57fe5b9060005260206000200154905092915050565b600080828460000180549050116137a1576040517f08c379a0000000000000000000000000000000000000000000000000000000008152600401808060200182810382526022815260200180614cfb6022913960400191505060405180910390fd5b60008460000184815481106137b257fe5b906000526020600020906002020190508060000154816001015492509250509250929050565b6000808460010160008581526020019081526020016000205490506000811415839061389f576040517f08c379a00000000000000000000000000000000000000000000000000000000081526004018080602001828103825283818151815260200191508051906020019080838360005b83811015613864578082015181840152602081019050613849565b50505050905090810190601f1680156138915780820380516001836020036101000a031916815260200191505b509250505060405180910390fd5b508460000160018203815481106138b257fe5b9060005260206000209060020201600101549150509392505050565b600081600001805490509050919050565b60006139008473ffffffffffffffffffffffffffffffffffffffff16613d4f565b61390d5760019050613af0565b6000613a7763150b7a0260e01b613922612d65565b888787604051602401808573ffffffffffffffffffffffffffffffffffffffff1681526020018473ffffffffffffffffffffffffffffffffffffffff16815260200183815260200180602001828103825283818151815260200191508051906020019080838360005b838110156139a657808201518184015260208101905061398b565b50505050905090810190601f1680156139d35780820380516001836020036101000a031916815260200191505b5095505050505050604051602081830303815290604052907bffffffffffffffffffffffffffffffffffffffffffffffffffffffff19166020820180517bffffffffffffffffffffffffffffffffffffffffffffffffffffffff8381831617835250505050604051806060016040528060328152602001614bc8603291398773ffffffffffffffffffffffffffffffffffffffff16613d629092919063ffffffff16565b90506000818060200190516020811015613a9057600080fd5b8101908080519060200190929190505050905063150b7a0260e01b7bffffffffffffffffffffffffffffffffffffffffffffffffffffffff1916817bffffffffffffffffffffffffffffffffffffffffffffffffffffffff191614925050505b949350505050565b600080836001016000848152602001908152602001600020541415905092915050565b60008083600101600084815260200190815260200160002054905060008114613bf75760006001820390506000600186600001805490500390506000866000018281548110613b6657fe5b9060005260206000200154905080876000018481548110613b8357fe5b9060005260206000200181905550600183018760010160008381526020019081526020016000208190555086600001805480613bbb57fe5b60019003818190600052602060002001600090559055866001016000878152602001908152602001600020600090556001945050505050613bfd565b60009150505b92915050565b6000613c0f8383613d7a565b613c68578260000182908060018154018082558091505060019003906000526020600020016000909190919091505582600001805490508360010160008481526020019081526020016000208190555060019050613c6d565b600090505b92915050565b6000808460010160008581526020019081526020016000205490506000811415613d1a57846000016040518060400160405280868152602001858152509080600181540180825580915050600190039060005260206000209060020201600090919091909150600082015181600001556020820151816001015550508460000180549050856001016000868152602001908152602001600020819055506001915050613d48565b82856000016001830381548110613d2d57fe5b90600052602060002090600202016001018190555060009150505b9392505050565b600080823b905060008111915050919050565b6060613d718484600085613d9d565b90509392505050565b600080836001016000848152602001908152602001600020541415905092915050565b606082471015613df8576040517f08c379a0000000000000000000000000000000000000000000000000000000008152600401808060200182810382526026815260200180614c1e6026913960400191505060405180910390fd5b613e0185613d4f565b613e73576040517f08c379a000000000000000000000000000000000000000000000000000000000815260040180806020018281038252601d8152602001807f416464726573733a2063616c6c20746f206e6f6e2d636f6e747261637400000081525060200191505060405180910390fd5b6000808673ffffffffffffffffffffffffffffffffffffffff1685876040518082805190602001908083835b60208310613ec25780518252602082019150602081019050602083039250613e9f565b6001836020036101000a03801982511681845116808217855250505050505090500191505060006040518083038185875af1925050503d8060008114613f24576040519150601f19603f3d011682016040523d82523d6000602084013e613f29565b606091505b5091509150613f39828286613f45565b92505050949350505050565b60608315613f555782905061400a565b600083511115613f685782518084602001fd5b816040517f08c379a00000000000000000000000000000000000000000000000000000000081526004018080602001828103825283818151815260200191508051906020019080838360005b83811015613fcf578082015181840152602081019050613fb4565b50505050905090810190601f168015613ffc5780820380516001836020036101000a031916815260200191505b509250505060405180910390fd5b9392505050565b828054600181600116156101000203166002900490600052602060002090601f016020900481019282614047576000855561408e565b82601f1061406057805160ff191683800117855561408e565b8280016001018555821561408e579182015b8281111561408d578251825591602001919060010190614072565b5b50905061409b919061409f565b5090565b5b808211156140b85760008160009055506001016140a0565b5090565b60006140cf6140ca846149e7565b6149b6565b9050828152602081018484840111156140e757600080fd5b6140f2848285614af4565b509392505050565b600061410d61410884614a17565b6149b6565b90508281526020810184848401111561412557600080fd5b614130848285614af4565b509392505050565b60008135905061414781614b49565b92915050565b60008083601f84011261415f57600080fd5b8235905067ffffffffffffffff81111561417857600080fd5b60208301915083602082028301111561419057600080fd5b9250929050565b6000813590506141a681614b60565b92915050565b6000813590506141bb81614b77565b92915050565b600082601f8301126141d257600080fd5b81356141e28482602086016140bc565b91505092915050565b600082601f8301126141fc57600080fd5b813561420c8482602086016140fa565b91505092915050565b60008135905061422481614b8e565b92915050565b60006020828403121561423c57600080fd5b600061424a84828501614138565b91505092915050565b6000806040838503121561426657600080fd5b600061427485828601614138565b925050602061428585828601614138565b9150509250929050565b6000806000606084860312156142a457600080fd5b60006142b286828701614138565b93505060206142c386828701614138565b92505060406142d486828701614215565b9150509250925092565b600080600080608085870312156142f457600080fd5b600061430287828801614138565b945050602061431387828801614138565b935050604061432487828801614215565b925050606085013567ffffffffffffffff81111561434157600080fd5b61434d878288016141c1565b91505092959194509250565b6000806040838503121561436c57600080fd5b600061437a85828601614138565b925050602061438b85828601614197565b9150509250929050565b600080604083850312156143a857600080fd5b60006143b685828601614138565b92505060206143c785828601614215565b9150509250929050565b6000602082840312156143e357600080fd5b60006143f1848285016141ac565b91505092915050565b60006020828403121561440c57600080fd5b600082013567ffffffffffffffff81111561442657600080fd5b614432848285016141eb565b91505092915050565b60008060008060006080868803121561445357600080fd5b600086013567ffffffffffffffff81111561446d57600080fd5b614479888289016141eb565b955050602086013567ffffffffffffffff81111561449657600080fd5b6144a2888289016141eb565b94505060406144b388828901614215565b935050606086013567ffffffffffffffff8111156144d057600080fd5b6144dc8882890161414d565b92509250509295509295909350565b6000602082840312156144fd57600080fd5b600061450b84828501614215565b91505092915050565b6000806040838503121561452757600080fd5b600061453585828601614215565b925050602061454685828601614215565b9150509250929050565b61455981614a80565b82525050565b61456881614a6e565b82525050565b61457781614a92565b82525050565b60006145898385614a63565b9350614596838584614af4565b82840190509392505050565b60006145ad82614a47565b6145b78185614a52565b93506145c7818560208601614b03565b6145d081614b38565b840191505092915050565b60006145e682614a47565b6145f08185614a63565b9350614600818560208601614b03565b80840191505092915050565b6000614619601783614a52565b91507f546f6b656e55524920416c7265616479204578697374730000000000000000006000830152602082019050919050565b6000614659601583614a52565b91507f546f6b656e204e616d65206e6f742065786973747300000000000000000000006000830152602082019050919050565b6000614699602b83614a52565b91507f43616c6c6572206d757374206e6f7420626520746865207a65726f206164647260008301527f657373206163636f756e740000000000000000000000000000000000000000006020830152604082019050919050565b60006146ff601c83614a52565b91507f436f6c6f7220636f646520697320416c726561647920457869737473000000006000830152602082019050919050565b600061473f601b83614a52565b91507f546f6b656e20494420697320616c7265616479206578697374732100000000006000830152602082019050919050565b61477b81614aea565b82525050565b600061478e82848661457d565b91508190509392505050565b60006147a682846145db565b915081905092915050565b60006020820190506147c6600083018461455f565b92915050565b60006020820190506147e1600083018461456e565b92915050565b6000602082019050818103600083015261480181846145a2565b905092915050565b600060208201905081810360008301526148228161460c565b9050919050565b600060208201905081810360008301526148428161464c565b9050919050565b600060208201905081810360008301526148628161468c565b9050919050565b60006020820190508181036000830152614882816146f2565b9050919050565b600060208201905081810360008301526148a281614732565b9050919050565b60006020820190506148be6000830184614772565b92915050565b6000610120820190506148da600083018c614772565b81810360208301526148ec818b6145a2565b90508181036040830152614900818a6145a2565b905061490f6060830189614550565b61491c6080830188614550565b61492960a0830187614550565b61493660c0830186614772565b61494360e0830185614772565b61495161010083018461456e565b9a9950505050505050505050565b6000808335600160200384360303811261497857600080fd5b80840192508235915067ffffffffffffffff82111561499657600080fd5b6020830192506001820236038313156149ae57600080fd5b509250929050565b6000604051905081810181811067ffffffffffffffff821117156149dd576149dc614b36565b5b8060405250919050565b600067ffffffffffffffff821115614a0257614a01614b36565b5b601f19601f8301169050602081019050919050565b600067ffffffffffffffff821115614a3257614a31614b36565b5b601f19601f8301169050602081019050919050565b600081519050919050565b600082825260208201905092915050565b600081905092915050565b6000614a7982614aca565b9050919050565b6000614a8b82614aca565b9050919050565b60008115159050919050565b60007fffffffff0000000000000000000000000000000000000000000000000000000082169050919050565b600073ffffffffffffffffffffffffffffffffffffffff82169050919050565b6000819050919050565b82818337600083830152505050565b60005b83811015614b21578082015181840152602081019050614b06565b83811115614b30576000848401525b50505050565bfe5b6000601f19601f8301169050919050565b614b5281614a6e565b8114614b5d57600080fd5b50565b614b6981614a92565b8114614b7457600080fd5b50565b614b8081614a9e565b8114614b8b57600080fd5b50565b614b9781614aea565b8114614ba257600080fd5b5056fe456e756d657261626c655365743a20696e646578206f7574206f6620626f756e64734552433732313a207472616e7366657220746f206e6f6e20455243373231526563656976657220696d706c656d656e7465724552433732313a207472616e7366657220746f20746865207a65726f2061646472657373416464726573733a20696e73756666696369656e742062616c616e636520666f722063616c6c4552433732313a206f70657261746f7220717565727920666f72206e6f6e6578697374656e7420746f6b656e4552433732313a20617070726f76652063616c6c6572206973206e6f74206f776e6572206e6f7220617070726f76656420666f7220616c6c4552433732313a2062616c616e636520717565727920666f7220746865207a65726f20616464726573734552433732313a206f776e657220717565727920666f72206e6f6e6578697374656e7420746f6b656e456e756d657261626c654d61703a20696e646578206f7574206f6620626f756e64734552433732313a20617070726f76656420717565727920666f72206e6f6e6578697374656e7420746f6b656e4552433732314d657461646174613a2055524920736574206f66206e6f6e6578697374656e7420746f6b656e4552433732313a207472616e73666572206f6620746f6b656e2074686174206973206e6f74206f776e4552433732314d657461646174613a2055524920717565727920666f72206e6f6e6578697374656e7420746f6b656e4552433732313a20617070726f76616c20746f2063757272656e74206f776e65724552433732313a207472616e736665722063616c6c6572206973206e6f74206f776e6572206e6f7220617070726f766564a26469706673582212202140fcc7698a620ab62cad47be1c4adcfb9059fe26794b717f7ecdf3883e9c3364736f6c63430007060033",
  "immutableReferences": {},
  "source": "// SPDX-License-Identifier: MIT\npragma solidity >=0.4.21 <0.8.0;\npragma abicoder v2;\n\n// import ERC721 iterface\nimport \"./ERC721.sol\";\n\n// CryptoCars smart contract inherits ERC721 interface\ncontract CryptoCars is ERC721 {\n\n  // this contract's token collection name\n  string public collectionName;\n  // this contract's token symbol\n  string public collectionNameSymbol;\n  // total number of crypto cars minted\n  uint256 public cryptoCarCounter;\n\n  // define crypto car struct\n   struct CryptoCar {\n    uint256 tokenId;\n    string tokenName;\n    string tokenURI;\n    address payable mintedBy;\n    address payable currentOwner;\n    address payable previousOwner;\n    uint256 price;\n    uint256 numberOfTransfers;\n    bool forSale;\n  }\n\n  // map cryptocar's token id to crypto car\n  mapping(uint256 => CryptoCar) public allCryptoCars;\n  // check if token name exists\n  mapping(string => bool) public tokenNameExists;\n  // check if color exists\n  mapping(string => bool) public colorExists;\n  // check if token URI exists\n  mapping(string => bool) public tokenURIExists;\n\n  // initialize contract while deployment with contract's collection name and token\n  constructor() ERC721(\"Crypto Cars Collection\", \"CK\") payable {\n    collectionName = name();\n    collectionNameSymbol = symbol();\n  }\n\n  // mint a new crypto car\n  function mintCryptoCar(string memory _name, string memory _tokenURI, uint256 _price, string[] calldata _colors) external {\n    // check if thic fucntion caller is not an zero address account\n    require(msg.sender != address(0),\"Caller must not be the zero address account\");\n    // increment counter\n    cryptoCarCounter ++;\n    // check if a token exists with the above token id => incremented counter\n    require(!_exists(cryptoCarCounter),\"Token ID is already exists!\");\n\n    // loop through the colors passed and check if each colors already exists or not\n    for(uint i=0; i<_colors.length; i++) {\n      require(!colorExists[_colors[i]],\"Color code is Already Exists\");\n    }\n    \n    // check if the token URI already exists or not\n    require(!tokenURIExists[_tokenURI],\"TokenURI Already Exists\");\n    // check if the token name already exists or not\n    require(!tokenNameExists[_name],\"Token Name not exists\");\n\n    // mint the token\n    _mint(msg.sender, cryptoCarCounter);\n    // set token URI (bind token id with the passed in token URI)\n    _setTokenURI(cryptoCarCounter, _tokenURI);\n\n    // loop through the colors passed and make each of the colors as exists since the token is already minted\n    for (uint i=0; i<_colors.length; i++) {\n      colorExists[_colors[i]] = true;\n    }\n    // make passed token URI as exists\n    tokenURIExists[_tokenURI] = true;\n    // make token name passed as exists\n    tokenNameExists[_name] = true;\n\n    // creat a new crypto car (struct) and pass in new values\n    CryptoCar memory newCryptoCar = CryptoCar(\n    cryptoCarCounter,\n    _name,\n    _tokenURI,\n    msg.sender,\n    msg.sender,\n    address(0),\n    _price,\n    0,\n    true);\n    // add the token id and it's crypto car to all crypto cars mapping\n    allCryptoCars[cryptoCarCounter] = newCryptoCar;\n  }\n\n  // get owner of the token\n  function getTokenOwner(uint256 _tokenId) public view returns(address) {\n    address _tokenOwner = ownerOf(_tokenId);\n    return _tokenOwner;\n  }\n\n  // get metadata of the token\n  function getTokenMetaData(uint _tokenId) public view returns(string memory) {\n    string memory tokenMetaData = tokenURI(_tokenId);\n    return tokenMetaData;\n  }\n\n  // get total number of tokens minted so far\n  function getNumberOfTokensMinted() public view returns(uint256) {\n    uint256 totalNumberOfTokensMinted = totalSupply();\n    return totalNumberOfTokensMinted;\n  }\n\n  // get total number of tokens owned by an address\n  function getTotalNumberOfTokensOwnedByAnAddress(address _owner) public view returns(uint256) {\n    uint256 totalNumberOfTokensOwned = balanceOf(_owner);\n    return totalNumberOfTokensOwned;\n  }\n\n  // check if the token already exists\n  function getTokenExists(uint256 _tokenId) public view returns(bool) {\n    bool tokenExists = _exists(_tokenId);\n    return tokenExists;\n  }\n\n  // by a token by passing in the token's id\n  function buyToken(uint256 _tokenId) public payable {\n    // check if the function caller is not an zero account address\n    require(msg.sender != address(0));\n    // check if the token id of the token being bought exists or not\n    require(_exists(_tokenId));\n    // get the token's owner\n    address tokenOwner = ownerOf(_tokenId);\n    // token's owner should not be an zero address account\n    require(tokenOwner != address(0));\n    // the one who wants to buy the token should not be the token's owner\n    require(tokenOwner != msg.sender);\n    // get that token from all crypto cars mapping and create a memory of it defined as (struct => CryptoCar)\n    CryptoCar memory cryptocar = allCryptoCars[_tokenId];\n    // price sent in to buy should be equal to or more than the token's price\n    require(msg.value >= cryptocar.price);\n    // token should be for sale\n    require(cryptocar.forSale);\n    // transfer the token from owner to the caller of the function (buyer)\n    _transfer(tokenOwner, msg.sender, _tokenId);\n    // get owner of the token\n    address payable sendTo = cryptocar.currentOwner;\n    // send token's worth of ethers to the owner\n    sendTo.transfer(msg.value);\n    // update the token's previous owner\n    cryptocar.previousOwner = cryptocar.currentOwner;\n    // update the token's current owner\n    cryptocar.currentOwner = msg.sender;\n    // update the how many times this token was transfered\n    cryptocar.numberOfTransfers += 1;\n    // set and update that token in the mapping\n    allCryptoCars[_tokenId] = cryptocar;\n  }\n\n  function changeTokenPrice(uint256 _tokenId, uint256 _newPrice) public {\n    // require caller of the function is not an empty address\n    require(msg.sender != address(0));\n    // require that token should exist\n    require(_exists(_tokenId));\n    // get the token's owner\n    address tokenOwner = ownerOf(_tokenId);\n    // check that token's owner should be equal to the caller of the function\n    require(tokenOwner == msg.sender);\n    // get that token from all crypto cars mapping and create a memory of it defined as (struct => CryptoCar)\n    CryptoCar memory cryptocar = allCryptoCars[_tokenId];\n    // update token's price with new price\n    cryptocar.price = _newPrice;\n    // set and update that token in the mapping\n    allCryptoCars[_tokenId] = cryptocar;\n  }\n\n  // switch between set for sale and set not for sale\n  function toggleForSale(uint256 _tokenId) public {\n    // require caller of the function is not an empty address\n    require(msg.sender != address(0));\n    // require that token should exist\n    require(_exists(_tokenId));\n    // get the token's owner\n    address tokenOwner = ownerOf(_tokenId);\n    // check that token's owner should be equal to the caller of the function\n    require(tokenOwner == msg.sender);\n    // get that token from all crypto cars mapping and create a memory of it defined as (struct => CryptoCar)\n    CryptoCar memory cryptocar = allCryptoCars[_tokenId];\n    // if token's forSale is false make it true and vice versa\n    if(cryptocar.forSale) {\n      cryptocar.forSale = false;\n    } else {\n      cryptocar.forSale = true;\n    }\n    // set and update that token in the mapping\n    allCryptoCars[_tokenId] = cryptocar;\n  }\n}",
  "sourcePath": "/home/user/MyProjects/Blockchain/Ethereum/NFT-Marketplace/src/contracts/CryptoCars.sol",
  "compiler": {
    "name": "solc",
    "version": "0.7.6+commit.7338295f.Emscripten.clang"
  },
  "schemaVersion": "3.4.3",
  "updatedAt": "2021-09-23T08:10:21.225Z",
  "networkType": "ethereum",
  "devdoc": {
    "kind": "dev",
    "methods": {
      "approve(address,uint256)": {
        "details": "See {IERC721-approve}."
      },
      "balanceOf(address)": {
        "details": "See {IERC721-balanceOf}."
      },
      "baseURI()": {
        "details": "Returns the base URI set via {_setBaseURI}. This will be automatically added as a prefix in {tokenURI} to each token's URI, or to the token ID if no specific URI is set for that token ID."
      },
      "getApproved(uint256)": {
        "details": "See {IERC721-getApproved}."
      },
      "isApprovedForAll(address,address)": {
        "details": "See {IERC721-isApprovedForAll}."
      },
      "name()": {
        "details": "See {IERC721Metadata-name}."
      },
      "ownerOf(uint256)": {
        "details": "See {IERC721-ownerOf}."
      },
      "safeTransferFrom(address,address,uint256)": {
        "details": "See {IERC721-safeTransferFrom}."
      },
      "safeTransferFrom(address,address,uint256,bytes)": {
        "details": "See {IERC721-safeTransferFrom}."
      },
      "setApprovalForAll(address,bool)": {
        "details": "See {IERC721-setApprovalForAll}."
      },
      "supportsInterface(bytes4)": {
        "details": "See {IERC165-supportsInterface}. Time complexity O(1), guaranteed to always use less than 30 000 gas."
      },
      "symbol()": {
        "details": "See {IERC721Metadata-symbol}."
      },
      "tokenByIndex(uint256)": {
        "details": "See {IERC721Enumerable-tokenByIndex}."
      },
      "tokenOfOwnerByIndex(address,uint256)": {
        "details": "See {IERC721Enumerable-tokenOfOwnerByIndex}."
      },
      "tokenURI(uint256)": {
        "details": "See {IERC721Metadata-tokenURI}."
      },
      "totalSupply()": {
        "details": "See {IERC721Enumerable-totalSupply}."
      },
      "transferFrom(address,address,uint256)": {
        "details": "See {IERC721-transferFrom}."
      }
    },
    "version": 1
  },
  "userdoc": {
    "kind": "user",
    "methods": {},
    "version": 1
  }
}